{
  "contractName": "ToDo",
  "abi": [
    {
      "constant": false,
      "inputs": [
        {
          "name": "_content",
          "type": "string"
        },
        {
          "name": "_author",
          "type": "string"
        }
      ],
      "name": "createTask",
      "outputs": [],
      "payable": false,
      "stateMutability": "nonpayable",
      "type": "function"
    },
    {
      "constant": true,
      "inputs": [
        {
          "name": "id",
          "type": "uint256"
        }
      ],
      "name": "getTask",
      "outputs": [
        {
          "name": "",
          "type": "uint256"
        },
        {
          "name": "",
          "type": "uint256"
        },
        {
          "name": "",
          "type": "string"
        },
        {
          "name": "",
          "type": "string"
        },
        {
          "name": "",
          "type": "bool"
        }
      ],
      "payable": false,
      "stateMutability": "view",
      "type": "function"
    }
  ],
  "bytecode": "0x608060405234801561001057600080fd5b506105b1806100206000396000f30060806040526004361061004c576000357c0100000000000000000000000000000000000000000000000000000000900463ffffffff1680631d65e77e14610051578063292a45851461017c575b600080fd5b34801561005d57600080fd5b5061007c6004803603810190808035906020019092919050505061022b565b60405180868152602001858152602001806020018060200184151515158152602001838103835286818151815260200191508051906020019080838360005b838110156100d65780820151818401526020810190506100bb565b50505050905090810190601f1680156101035780820380516001836020036101000a031916815260200191505b50838103825285818151815260200191508051906020019080838360005b8381101561013c578082015181840152602081019050610121565b50505050905090810190601f1680156101695780820380516001836020036101000a031916815260200191505b5097505050505050505060405180910390f35b34801561018857600080fd5b50610229600480360381019080803590602001908201803590602001908080601f0160208091040260200160405190810160405280939291908181526020018383808284378201915050505050509192919290803590602001908201803590602001908080601f016020809104026020016040519081016040528093929190818152602001838380828437820191505050505050919291929050505061040e565b005b60008060608060008560008781548110151561024357fe5b90600052602060002090600502016001015460008881548110151561026457fe5b906000526020600020906005020160020160008981548110151561028457fe5b906000526020600020906005020160030160008a8154811015156102a457fe5b906000526020600020906005020160040160009054906101000a900460ff16828054600181600116156101000203166002900480601f0160208091040260200160405190810160405280929190818152602001828054600181600116156101000203166002900480156103585780601f1061032d57610100808354040283529160200191610358565b820191906000526020600020905b81548152906001019060200180831161033b57829003601f168201915b50505050509250818054600181600116156101000203166002900480601f0160208091040260200160405190810160405280929190818152602001828054600181600116156101000203166002900480156103f45780601f106103c9576101008083540402835291602001916103f4565b820191906000526020600020905b8154815290600101906020018083116103d757829003601f168201915b505050505091509450945094509450945091939590929450565b600060a060405190810160405280600080549050815260200142815260200184815260200183815260200160001515815250908060018154018082558091505090600182039060005260206000209060050201600090919290919091506000820151816000015560208201518160010155604082015181600201908051906020019061049b9291906104e0565b5060608201518160030190805190602001906104b89291906104e0565b5060808201518160040160006101000a81548160ff0219169083151502179055505050505050565b828054600181600116156101000203166002900490600052602060002090601f016020900481019282601f1061052157805160ff191683800117855561054f565b8280016001018555821561054f579182015b8281111561054e578251825591602001919060010190610533565b5b50905061055c9190610560565b5090565b61058291905b8082111561057e576000816000905550600101610566565b5090565b905600a165627a7a723058207ad2eca563bf9e921c060906a9924eed1d38481917a0b12052c219c8abbf934c0029",
  "source": "pragma solidity ^0.4.22;\n//pragma experimental ABIEncoderV2; // ParsedContract.sol:36:2: ParserError: Expected pragma, import directive or contract/interface/library definition.\n\n\ncontract ToDo {\n  struct Task {\n    uint id;\n    uint date;\n    string content;\n    string author;\n    bool done;\n  }\n\n  Task[] tasks;\n\n  function createTask(string _content, string _author) public {\n    tasks.push(Task(tasks.length, now, _content, _author, false));\n  }\n\n  function getTask(uint id) public constant \n    returns(\n      uint,\n      uint,\n      string,\n      string,\n      bool\n    ) {\n      return(\n        id,\n        tasks[id].date,\n        tasks[id].content,\n        tasks[id].author,\n        tasks[id].done\n      );\n    }\n\n    //will not work because cant return array of struct yet in Solidity\n    //function getTasks() public constant returns(Task[]) {\n    //  return tasks;\n    //}\n}",
  "sourcePath": "/home/nafi/Masaüstü/dapp_todoapp/contracts/ToDo.sol",
  "compiler": {
    "name": "solc",
    "version": "0.4.24+commit.e67f0147.Emscripten.clang"
  },
  "schemaVersion": "2.0.1",
  "updatedAt": "2018-12-01T11:11:53.584Z"
}